:020000040800F2
:100000000000012041170008E5050008E705000889
:10001000E9050008EB050008ED05000800000000F8
:10002000000000000000000000000000EF050008D4
:10003000F105000800000000F3050008F5050008C0
:100040008917000889170008891700088917000810
:100050008917000889170008891700088917000800
:1000600089170008891700088917000889170008F0
:1000700089170008891700088917000889170008E0
:1000800089170008891700088917000889170008D0
:1000900089170008891700088917000889170008C0
:1000A00089170008891700088917000889170008B0
:1000B00089170008891700088917000889170008A0
:1000C0008917000889170008891700088917000890
:1000D00089170008151700088917000889170008F4
:1000E0008917000889170008891700088917000870
:1000F0008917000889170008891700088917000860
:10010000891700088917000889170008891700084F
:10011000891700088917000889170008891700083F
:10012000891700088917000889170008891700082F
:1001300000000000000000000000000000000000BF
:1001400000000000000000000000000000000000AF
:10015000000000000000000000000000000000009F
:10016000000000000000000000000000000000008F
:10017000000000000000000000000000000000007F
:10018000000000000000000000000000000000006F
:10019000000000000000000000000000000000005F
:1001A000000000000000000000000000000000004F
:1001B000000000000000000000000000000000003F
:1001C000000000000000000000000000000000002F
:1001D000000000000000000000000000000000001F
:0401E0005FF8E0F1F3
:1001E40010B5054C237833B9044B13B10448AFF36D
:1001F40000800123237010BD0C00002000000000CB
:10020400D417000808B5034B1BB103490348AFF3E7
:10021400008008BD0000000010000020D417000872
:10022400F0B587B01A4B9A6942F004029A619B694F
:1002340003F004030193019B012303930493032319
:10024400059320270297134C02A9204600F058FF7B
:100254004026029602A9204600F052FF802502950E
:1002640002A9204600F04CFF04F5806400223946C0
:10027400204601F06CF800223146204601F067F870
:1002840000222946204601F062F807B0F0BD00BF05
:10029400001002400008014038B50546134C012205
:1002A4002021204601F053F801224021204601F08C
:1002B4004EF801228021204601F049F8284601F039
:1002C4009DF900222021204601F041F8002240211E
:1002D400204601F03CF800228021204601F037F846
:1002E400C5F59C40203001F089F938BD0008014073
:1002F40030B587B00E4B9A6942F008029A619B6947
:1003040003F008030193019B012303930493032344
:1003140005934FF480750295064C02A9204600F01F
:10032400EFFE00222946204601F011F807B030BD47
:1003340000100240000C0140F0B587B0174B9A69D9
:1003440042F008029A619A6902F008020092009A47
:100354009A6942F040029A619B6903F04003019359
:10036400019B0124039404940323059320250295FF
:100374000B4F02A9384600F0C3FE0A4E02A93046CC
:1003840000F0BEFE22462946384600F0E0FF224631
:100394002946304600F0DBFF07B0F0BD00100240F4
:1003A400000C01400018014010B586B0134B9A6947
:1003B40042F004029A619A6902F004020092009ADF
:1003C4009A6942F040029A619B6903F040030193E9
:1003D400019B002303930223049303230593012425
:1003E400029402A9064800F08BFE04941823029399
:1003F40002A9044800F084FE06B010BD00100240BB
:10040400000801400018014038B505460121224882
:1004140000F096FF8400A4B20821204800F090FF69
:1004240088B902231C44A4B210211C4800F088FFA0
:10043400002808BF0134A4B2012D06D044B9184ADB
:100444000121117004E00023ECE7154A0121117029
:10045400F4B1134A1078E0B100211170631E062B29
:1004640011D8DFE803F0041706080A0C0E00012077
:100474000FE003200DE004200BE0052009E0062036
:1004840007E0072005E025B90A2001F0D5F800E0CF
:10049400002038BD0220FCE700080140001801409C
:1004A4000000002038B500F0FBFA4FF4E01001F032
:1004B400CFF8FFF7B5FEFFF71BFFFFF73DFFFFF790
:1004C40073FF482001F090F840F2DC5414E0424DF0
:1004D40001222021284600F03AFF012220213F4832
:1004E40000F035FF00224FF48071284600F02FFF02
:1004F400B4F5FA7F3FD20A34224621462046FFF75C
:10050400CBFE0120FFF780FF0728F1D801A353F8A1
:1005140020F000BFD304000839050008470500088F
:10052400550500086B05000887050008A1050008AB
:10053400B905000800222021274800F008FF0A34EA
:10054400D6E700222021254800F001FF0A3CCFE72E
:1005540000222021204800F0FAFE002220211F481A
:1005640000F0F5FEC4E701224FF480711A4800F050
:10057400EEFE40F2DC5440F6C4139C42BCD90A3C63
:10058400BAE7154D00222021284600F0E0FE0122A2
:100594004FF48071284600F0DAFEA9E700222021FA
:1005A4000E4800F0D4FE01224FF480710A4800F096
:1005B400CEFE9DE7084D00222021284600F0C7FE0C
:1005C40000222021054800F0C2FE01224FF4807170
:1005D400284600F0BCFE8BE7000C014000180140E7
:1005E400FEE7FEE7FEE7FEE7FEE770477047704769
:1005F40008B500F067FA08BD82B00E4B9A6942F064
:1006040001029A619A6902F001020092009ADA6981
:1006140042F08052DA61DB6903F080530193019B5D
:10062400054A536823F0E06343F00073536002B05B
:10063400704700BF00100240000001400268D36808
:1006440023F49073D3600268536923F00103536168
:10065400036B012B05D0202380F83E300023036375
:1006640070470268D36823F01003D360F3E790F86F
:100674003D30DBB2212B01D0022070478368B3F5F3
:10068400805F17D0036A5A1C02621A7803685A60A2
:10069400C38C9BB2013B9BB2C3844BB90268D36841
:1006A40023F08003D3600268D36843F04003D3602F
:1006B400002070470369002BE4D1036A1B88026899
:1006C400C3F308035360036A02330362E0E770472D
:1006D40008B50168CA6822F04002CA60202280F886
:1006E4003D20FFF7F4FF002008BD704708B5406ABD
:1006F4000023C385C384FFF7F8FF08BD704790F853
:100704003E30DBB2222B60D18368B3F5805F46D0E4
:10071400826AB3F5805F04D0002B4DD10369002BAE
:100724004AD103685B681370836A01338362C38DA3
:100734009BB2013B9BB2C385002B48D100B583B06B
:100744000268D36823F02003D3600268D36823F4DB
:100754008073D3600268536923F00103536120233B
:1007640080F83E30036B012B2CD100230363026815
:10077400D36823F01003D36003681A6812F0100FD3
:1007840006D0002201921A6801925B680193019BD2
:10079400818DFFF7B3FF002003B05DF804FB02690D
:1007A400002AB5D1826A03685B68C3F30803138027
:1007B400836A02338362BAE703685B6803F07F03EA
:1007C4001370B1E700F068FFE5E7022070470020EE
:1007D4007047000030B583B0044602681368D068DF
:1007E400516913F00F0505D113F0200F02D010F05A
:1007F400200F19D12DB111F0010119D110F4907FFE
:1008040016D1216B012975D013F0800F03D010F09D
:10081400800F40F0D78013F0400F03D010F0400F4A
:1008240040F0D48003B030BD2046FFF768FFF9E7FD
:1008340013F0010F06D010F4807F03D0226C42F035
:100844000102226413F0040F04D019B1226C42F0A7
:100854000202226413F0020F04D019B1226C42F098
:100864000402226413F0080F07D010F0200F00D107
:1008740019B1226C42F008022264226C002AD1D001
:1008840013F0200F02D010F0200F21D123685B69F0
:1008940003F04003226C12F0080F00D123B320466A
:1008A400FFF7CCFE23685A6912F0400F18D05A693A
:1008B40022F040025A61A36B73B1464A5A63A06B9B
:1008C40000F06EFD0028ADD0A06B436B9847A9E7FC
:1008D4002046FFF714FFD9E72046FFF706FFA1E7FC
:1008E4002046FFF702FF9DE72046FFF7FEFE0023A8
:1008F400236497E713F0100F86D010F0100F83D005
:10090400002301931368019353680193019B536976
:1009140013F0400F32D0A16B0B685B689BB2002BC5
:1009240080D0A08D98427FF67DAFE3858B69202B24
:1009340008D1A18DE38D9BB2C91A89B22046FFF775
:10094400DDFE6FE7D36823F48073D36022685369B4
:1009540023F0010353612268536923F04003536178
:10096400202384F83E30002323632268D36823F0D5
:100974001003D360A06B00F0F0FCDAE7A18DE38DE7
:100984009BB2C91A89B2E38D9BB2002B3FF44AAFE4
:1009940000293FF447AFD36823F49073D3602268EF
:1009A400536923F001035361202384F83E3000236C
:1009B40023632268D36823F01003D3602046FFF733
:1009C4009DFE2FE72046FFF752FE2BE72046FFF758
:1009D4007FFE27E7F106000890F83D3090F83E00CE
:1009E40018437047034681628285C28500201864DB
:1009F400222283F83E2083F83C001968CA6842F436
:100A04008072CA6019684A6942F001024A611A6830
:100A1400D36843F02003D360704708B590F83E30A4
:100A2400DBB2202B0DD171B17AB190F83C30012B9F
:100A34000DD0012380F83C3000230363FFF7D2FF7D
:100A440000E0022008BD0120FCE70120FAE70220B3
:100A5400F8E7000010B504460E4B18784FF47A738B
:100A6400B3FBF0F30C4A1068B0FBF3F000F096FD12
:100A740068B90F2C01D901200AE0002221464FF069
:100A8400FF3000F053FD054B1C60002000E0012006
:100A940010BD00BF01000020080000200400002059
:100AA40008B5074A136843F010031360032000F0ED
:100AB4002BFD0F20FFF7CEFFFFF79EFD002008BDA2
:100AC40000200240034A1168034B1B780B44136057
:100AD400704700BF2800002001000020014B186867
:100AE400704700BF2800002082B0084B1B68084AEA
:100AF400A2FB03235B0A00FB03F3019300BF019BEA
:100B04005A1E0192002BF9D102B070470800002050
:100B1400D34D6210002800F0F18170B582B0044614
:100B2400036813F0010F2CD0994B5B6803F00C039E
:100B3400042B1DD0964B5B6803F00C03082B12D0DA
:100B44006368B3F5803F41D0002B55D103F1804356
:100B540003F504331A6822F480321A601A6822F406
:100B640080221A6037E08A4B5B6813F4803FE7D039
:100B7400874B1B6813F4003F03D06368002B00F01D
:100B8400BF81236813F0020F75D0814B5B6813F0AB
:100B94000C0F5FD07E4B5B6803F00C03082B54D022
:100BA4002369002B00F08A807A4B01221A60FFF738
:100BB40095FF0546764B1B6813F0020F75D1FFF7BE
:100BC4008DFF401B0228F5D903209EE1704A13686B
:100BD40043F480331360636843B3FFF77FFF054634
:100BE4006B4B1B6813F4003FCBD1FFF777FF401B1F
:100BF4006428F5D9032088E1B3F5A02F09D0644B0C
:100C04001A6822F480321A601A6822F480221A6068
:100C1400E1E703F18043A3F53C331A6842F48022F0
:100C24001A601A6842F480321A60D4E7FFF756FF5C
:100C34000546574B1B6813F4003FA2D0FFF74EFF45
:100C4400401B6428F5D903205FE1514B5B6813F422
:100C5400803FA5D14E4B1B6813F0020F03D02369CC
:100C6400012B40F04F814A4A136823F0F80361696D
:100C740043EAC1031360236813F0080F33D0A36958
:100C8400002B5CD0434B0122C3F88024FFF726FFDE
:100C940005463F4B5B6A13F0020F21D1FFF71EFF9D
:100CA400401B0228F5D903202FE1394A136823F0A9
:100CB400F803616943EAC1031360DCE7354B0022A2
:100CC4001A60FFF70BFF0546314B1B6813F0020F48
:100CD400D1D0FFF703FF401B0228F5D9032014E10C
:100CE4000120FFF701FF236813F0040F00F0968042
:100CF400274BDB6913F0805F34D1254BDA6942F06E
:100D04008052DA61DB6903F080530193019B012572
:100D1400214B1B6813F4807F26D0E368012B3DD060
:100D2400002B53D103F1804303F504331A6A22F0F4
:100D340001021A621A6A22F004021A6233E0154BA5
:100D44000022C3F88024FFF7C9FE0546104B5B6AF6
:100D540013F0020FC7D0FFF7C1FE401B0228F5D9DC
:100D64000320D2E00025D3E70B4A136843F48073D1
:100D74001360FFF7B3FE0646074B1B6813F4807F2E
:100D8400CBD1FFF7ABFE801B6428F5D90320BCE070
:100D94000010024000004242007000405F4A136AA3
:100DA40043F001031362E36833B3FFF797FE06468B
:100DB4005A4B1B6A13F0020F2FD1FFF78FFE801BD3
:100DC40041F288339842F3D903209EE0052B09D0E1
:100DD400524B1A6A22F001021A621A6A22F00402C1
:100DE4001A62E0E74D4B1A6A42F004021A621A6A68
:100DF40042F001021A62D6E7FFF770FE0646474B3F
:100E04001B6A13F0020F08D0FFF768FE801B41F243
:100E140088339842F3D9032077E0E5B9E369002BDE
:100E240072D03E4A526802F00C02082A56D0022BB5
:100E340017D03B4B00221A66FFF750FE0446374B8F
:100E44001B6813F0007F47D0FFF748FE001B022801
:100E5400F5D9032059E0314AD36923F08053D36193
:100E6400DCE72F4B00221A66FFF738FE05462B4BB2
:100E74001B6813F0007F06D0FFF730FE401B0228EA
:100E8400F5D9032041E0236AB3F5803F1AD0234902
:100E94004B6823F47413226A606A024313434B6061
:100EA4001F4B01221A66FFF719FE04461B4B1B68F1
:100EB40013F0007F0ED1FFF711FE001B0228F5D9B5
:100EC400032022E0154A536823F40033A1680B433E
:100ED4005360DCE7002018E0002016E0012B16D058
:100EE4000E4B5B6803F48031226A914211D103F402
:100EF4007013626A93420ED1002006E0012070470D
:100F0400012002E0012000E0002002B070BD0120B9
:100F1400FBE70120F9E70120F7E700BF00100240DA
:100F24000000424286B0174B0FCB0DF1180C0CE9B0
:100F34000F0040F20123ADF80430134B5B6803F05B
:100F44000C02082A02D0114806B07047C3F383424A
:100F540018326A4412F8100C13F4803F0DD00A4B77
:100F64005B68C3F3404318336B4413F8143C074ADB
:100F740002FB00F0B0FBF3F0E6E7054B03FB00F0E7
:100F8400E2E700BFEC1700080010024000127A00EC
:100F940000093D00002800F0A08070B50D4604460D
:100FA400524B1B6803F007038B420BD24F4A136862
:100FB40023F007030B431360136803F007038B420A
:100FC40040F08D80236813F0020F17D013F0040F44
:100FD40004D0474A536843F4E0635360236813F032
:100FE400080F04D0424A536843F460535360404AA4
:100FF400536823F0F003A1680B435360236813F094
:10100400010F31D06368012B20D0022B25D0384A40
:10101400126812F0020F64D035494A6822F00302C4
:1010240013434B60FFF75AFD0646314B5B6803F0F0
:101034000C036268B3EB820F16D0FFF74FFD801BE1
:1010440041F288339842F0D9032045E0284A1268D7
:1010540012F4003FE0D101203EE0254A126812F06C
:10106400007FD9D1012037E0204B1B6803F0070330
:10107400AB420AD91D4A136823F007032B431360BC
:10108400136803F00703AB422DD1236813F0040F58
:1010940006D0174A536823F4E063E1680B435360B6
:1010A400236813F0080F07D0114A536823F46053E0
:1010B400216943EAC1035360FFF734FF0C4B5B68BB
:1010C400C3F303130B4AD35CD8400B4B18600B4B90
:1010D4001868FFF7BFFC002070BD01207047012095
:1010E400FAE70120F8E70120F6E700BF00200240FC
:1010F400001002400018000808000020040000202E
:1011040070B582B00024A446B0E0874DAA4210D046
:1011140007D9864DAA420CD005F58035AA4208D0DD
:1011240013E0A5F58015AA4203D005F57025AA425F
:1011340007D18A68002A62D0012A5BD0436108245F
:1011440003E0A5F58015AA42F3D0BEF1FF0F58D8ED
:101154000646BEF1FF0F56D84FEA8C0233680F25BE
:10116400954023EA050304FA02F2134333604B6803
:1011740013F0805F78D06E4B9A6942F001029A6155
:101184009B6903F001030193019B4FEA9C02951CA8
:10119400684B53F825600CF003039D000F23AB400C
:1011A40026EA0306644B984233D003F580639842E1
:1011B40000F0988003F58063984200F0958003F571
:1011C4008063984200F0928003F58063984200F0B7
:1011D4008F8003F58063984219D006231AE0CC6807
:1011E400B3E7CC680434B0E7CC680834ADE7CC6826
:1011F4000C34AAE703610824A7E70024A5E7042424
:10120400A3E7061DA5E7ACF108029200A6E70523B3
:1012140000E00023AB4033430232464D45F8223010
:101224004B6813F4803F65D0444A136843EA0E03C5
:1012340013604B6813F4003F62D0404A536843EA9A
:101244000E0353604B6813F4801F5FD03B4A9368CE
:1012540043EA0E0393604B6813F4001F5CD0374AD3
:10126400D36843EA0E03D3600CF1010C0A6832FA26
:101274000CF357D0012303FA0CF302EA030E33EA0A
:101284000202F1D14A68122A3FF63FAF122A3FF612
:101294005CAF01A555F822F037110008E3110008EE
:1012A400ED110008FF1100084F1100084F1100084C
:1012B4004F1100084F1100084F1100084F1100088A
:1012C4004F1100084F1100084F1100084F1100087A
:1012D4004F1100084F1100084F110008E7110008D2
:1012E400F3110008012395E7022393E7032391E711
:1012F40004238FE7114A136823EA0E03136098E767
:101304000E4A536823EA0E0353609BE70B4A936823
:1013140023EA0E0393609EE7084AD36823EA0E0388
:10132400D360A1E702B070BD0000221000003110AC
:101334000010024000000140000801400004014088
:101344008368194201D001207047002070470AB118
:101354000161704709040161704790F82130022B44
:1013640006D004238363002380F8203001207047D3
:101374000268136823F00E0313600268136823F0F5
:1013840001031360036CC16B012202FA03F34B6087
:1013940080F82120002380F8203018467047000090
:1013A40008B590F82130022B03D004238363012075
:1013B40008BD0268136823F00E0313600268136803
:1013C40023F00103136003684B4A93424ED9783AE1
:1013D400934224D01432934230D0143293422FD00B
:1013E400143293422FD0143293422FD014329342AA
:1013F4002FD0143293422FD002F5627293422ED032
:10140400143293422DD0143293422CD0143293428E
:1014140002D04FF4803203E04FF4805200E0012206
:10142400364B5A60012380F82130002380F82030A5
:10143400436B002B5ED098470020B9E71022EFE7FA
:101444004FF48072ECE74FF48052E9E74FF48032B6
:10145400E6E74FF48012E3E74FF08072E0E7012201
:10146400DEE71022DCE74FF48072D9E7244A934286
:1014740024D01432934225D01432934224D014320F
:10148400934224D01432934224D01432934224D071
:101494001432934224D002F56272934223D0143260
:1014A400934222D01432934221D01432934202D078
:1014B4004FF4803203E04FF4805200E00122114BDC
:1014C4005A60AFE71022FAE74FF48072F7E74FF45F
:1014D4008052F4E74FF48032F1E74FF48012EEE7E4
:1014E4004FF08072EBE70122E9E71022E7E74FF4BF
:1014F4008072E4E700205BE78000024000040240C1
:101504000800024000000240074AD36823F4E06365
:101514001B041B0C000200F4E060034343F0BF63B0
:1015240043F40033D360704700ED00E000B5194B7D
:10153400DB68C3F30223C3F1070CBCF1040F28BF1B
:101544004FF0040C03F1040EBEF1060F18D9033B4F
:101554004FF0FF3E0EFA0CFC21EA0C0199400EFA02
:1015640003F322EA0303194300280BDB0901C9B280
:1015740000F1604000F5614080F800135DF804FB61
:101584000023E5E700F00F000901C9B2024B19542A
:10159400F4E700BF00ED00E014ED00E00138B0F125
:1015A400807F0BD24FF0E0235861054AF02182F886
:1015B40023100020986107221A61704701207047A8
:1015C40000ED00E0042806D04FF0E022136923F078
:1015D4000403136170474FF0E022136943F00403DE
:1015E400136170477047000010B504460420FFF7EC
:1015F400E9FF014B1C6010BD2C00002010B44FF01B
:10160400E02254690B4B1B6800FB03FC9369002127
:1016140004E0E01A02441144614509D21A464FF02D
:10162400E0239B699A42FAD0F3D9D21A1144F3E722
:1016340010BC70472C00002038B50546002404E097
:101644004FF47A70FFF7DAFF0134A542F8D838BDB9
:1016540000B591B0012306934FF480330793002221
:10166400089202220D920E930F9006A8FFF752FAE9
:1016740000B1FEE70F23019302210291002303939B
:101684004FF480620492059301A8FFF783FC00B134
:10169400FEE711B05DF804FB0268194B9A4200D0D2
:1016A4007047184A1388B2F90020002AF8DB13F4B3
:1016B400804F0ED0144A12780A2A03D0114B00220C
:1016C4001A8070476FEA43436FEA53430D4A13800D
:1016D40070470D4A12780D2A0DD0C3F30D010B4843
:1016E400425401339BB2074A1380C72BD8D91346FF
:1016F40000221A80D4E743F48043024A13807047DF
:10170400003801403C01002040010020740000200A
:1017140008B50848FFF75EF80648FFF75DF920288A
:10172400FAD1012204490348FFF777F90028F8D1D8
:1017340008BD00BF30000020400100200C480D49C6
:101744000D4A002302E0D458C4500433C4188C4218
:10175400F9D30A4A0A4C002301E013600432A2427E
:10176400FBD3FFF73FFF00F00FF8FEF79BFE704737
:10177400000000200C000020181800080C000020B5
:1017840044010020FEE7000070B500260C4D0D4C0E
:10179400641BA410A64209D100F01AF800260A4DD1
:1017A4000A4C641BA410A64205D170BD55F8043B35
:1017B40098470136EEE755F8043B98470136F2E7BF
:1017C4001018000810180008101800081418000851
:1017D400F8B500BFF8BC08BC9E467047F8B500BF1A
:0817E400F8BC08BC9E467047EA
:1017EC0002030405060708090A0B0C0D0E0F101056
:1017FC0000000000000000000000000001020304D3
:04180C0006070809BA
:0418100009020008C1
:04181400E5010008E2
:0C18180001010000100000000024F4009A
:040000050800174197
:00000001FF
