:020000040800F2
:1000000000000120091E000823050008250500083E
:1000100027050008290500082B050008000000003E
:100020000000000000000000000000002D05000896
:100030002F05000800000000310500083305000806
:10004000591E0008591E0008591E0008591E0008B4
:10005000591E0008591E0008591E0008591E0008A4
:10006000591E0008591E0008591E0008591E000894
:10007000591E0008591E0008591E0008591E000884
:10008000591E0008591E0008591E000800000000F3
:10009000000000000000000000000000591E0008E1
:1000A000591E0008591E0008591E0008591E000854
:1000B000591E0008451D0008591E0008591E000859
:1000C000591E0008591E0008591E0008591E000834
:1000D000591E0008CD1B0008591E00080000000032
:1000E000591E0008591E0008591E00080000000093
:1000F000000000000000000000000000591E000881
:1001000000000000591E0008591E0008591E000872
:1001100000000000000000000000000000000000DF
:10012000591E0008591E0008591E0008591E0008D3
:10013000591E000800000000000000000000000040
:10014000000000000000000000000000591E000830
:10015000591E0008591E0008591E0008591E0008A3
:10016000591E0008591E0008000000000000000091
:10017000000000000000000000000000000000007F
:1001800000000000591E00080000000000000000F0
:04019000591E0008EC
:1001940010B5054C237833B9044B13B10448AFF3BD
:1001A40000800123237010BD100000200000000017
:1001B400A41E000808B5034B1BB103490348AFF361
:1001C400008008BD0000000014000020A41E0008E8
:1001D40053B94AB9002908BF00281CBF4FF0FF31AA
:1001E4004FF0FF3000F074B9ADF1080C6DE904CEA6
:1001F40000F006F8DDF804E0DDE9022304B07047FE
:100204002DE9F047089D04468E46002B4DD18A42C5
:10021400944669D9B2FA82F252B101FA02F3C2F1F8
:10022400200120FA01F10CFA02FC41EA030E944089
:100234004FEA1C48210CBEFBF8F61FFA8CF708FBAA
:1002440016E341EA034306FB07F199420AD91CEB82
:10025400030306F1FF3080F01F81994240F21C81B4
:10026400023E63445B1AA4B2B3FBF8F008FB1033FC
:1002740044EA034400FB07F7A7420AD91CEB040431
:1002840000F1FF3380F00A81A74240F20781644401
:10029400023840EA0640E41B00261DB1D440002386
:1002A400C5E900433146BDE8F0878B4209D9002DEA
:1002B40000F0EF800026C5E9000130463146BDE874
:1002C400F087B3FA83F6002E4AD18B4202D38242DE
:1002D40000F2F980841A61EB030301209E46002D8D
:1002E400E0D0C5E9004EDDE702B9FFDEB2FA82F2E2
:1002F400002A40F09280A1EB0C014FEA1C471FFA40
:100304008CFE0126200CB1FBF7F307FB131140EA26
:1003140001410EFB03F0884208D91CEB010103F1F3
:10032400FF3802D2884200F2CB804346091AA4B2B5
:10033400B1FBF7F007FB101144EA01440EFB00FE89
:10034400A64508D91CEB040400F1FF3102D2A645EE
:1003540000F2BB800846A4EB0E0440EA03409CE78D
:10036400C6F12007B34022FA07FC4CEA030C20FA3A
:1003740007F401FA06F31C43F9404FEA1C4900FA5A
:1003840006F3B1FBF9F8200C1FFA8CFE09FB1811D7
:1003940040EA014108FB0EF0884202FA06F20BD94A
:1003A4001CEB010108F1FF3A80F08880884240F29A
:1003B4008580A8F102086144091AA4B2B1FBF9F0DE
:1003C40009FB101144EA014100FB0EFE8E4508D9D9
:1003D4001CEB010100F1FF346CD28E456AD902385E
:1003E400614440EA0840A0FB0294A1EB0E01A14243
:1003F400C846A64656D353D05DB1B3EB080261EBB1
:100404000E0101FA07F722FA06F3F1401F43C5E98A
:10041400007100263146BDE8F087C2F12003D840C0
:100424000CFA02FC21FA03F3914001434FEA1C4702
:100434001FFA8CFEB3FBF7F007FB10360B0C43EAF4
:10044400064300FB0EF69E4204FA02F408D91CEBA4
:10045400030300F1FF382FD29E422DD902386344A2
:100464009B1B89B2B3FBF7F607FB163341EA034142
:1004740006FB0EF38B4208D91CEB010106F1FF3891
:1004840016D28B4214D9023E6144C91A46EA004688
:1004940038E72E46284605E70646E3E61846F8E61A
:1004A4004B45A9D2B9EB020864EB0C0E0138A3E763
:1004B4004646EAE7204694E74046D1E7D0467BE744
:1004C400023B614432E7304609E76444023842E7BC
:1004D400704700BF10B501F079FA042302221921F4
:1004E400A82001F0E5FA542001F0ACFA01F082FBF7
:1004F40001F038FC5321F92001F0B4FBFA24002068
:1005040001F050FC0028FAD0142001F0C5FA01F0E3
:1005140097FB193CA4B2204601F00CFCEFE7FEE780
:10052400FEE7FEE7FEE7FEE770477047704708B551
:1005340001F066FA08BD000082B0002100910B4B67
:100544005A6C42F480425A645A6C02F4804200921B
:10055400009A01911A6C42F080521A641B6C03F0E9
:1005640080530193019B02B0704700BF00380240E2
:1005740070B4036A23F001030362036A4668826964
:1005840022F073020C6844EA020523F002028B682D
:1005940013430D4CA04209D00B4CA0420DD0466031
:1005A40085614A684263036270BC704723F00803A4
:1005B400CA68134323F00403EEE726F440764A693D
:1005C40032438E691643EAE70000014030B4036AFF
:1005D40023F480730362036A4568C26922F07302DC
:1005E4000C68224323F400738C6843EA04230F4C01
:1005F400A04209D00D4CA0420ED04560C2614A68A9
:10060400C263036230BC704723F40063CC6843EADE
:10061400042323F48063EDE725F440554C6945EA4F
:1006240004158C6945EA0415E7E700BF00000140A2
:1006340030B4036A23F480530362036A4468C269D2
:1006440022F4E6420D6842EA052223F400538D6841
:1006540043EA0533074DA84206D04460C2614A68A4
:100664000264036230BC704724F480444D6944EA58
:100674008514F2E7000001407047704770477047E7
:1006840010B5044603681A6912F0020F11D0DA6833
:1006940012F0020F0DD06FF002021A6101230377EA
:1006A40003689B6913F0030F70D0FFF7E6FF002384
:1006B400237723681A6912F0040F12D0DA6812F053
:1006C400040F0ED06FF004021A610223237723680B
:1006D4009B6913F4407F5FD02046FFF7CEFF0023D1
:1006E400237723681A6912F0080F12D0DA6812F01F
:1006F400080F0ED06FF008021A61042323772368D1
:10070400DB6913F0030F4ED02046FFF7B6FF00233A
:10071400237723681A6912F0100F12D0DA6812F0E6
:10072400100F0ED06FF010021A610823237723688C
:10073400DB6913F4407F3DD02046FFF79EFF002382
:10074400237723681A6912F0010F03D0DA6812F0D4
:10075400010F36D123681A6912F0800F03D0DA68CA
:1007640012F0800F34D123681A6912F0400F03D0BD
:10077400DA6812F0400F32D123681A6912F0200FA0
:1007840003D0DA6812F0200F30D110BDFFF774FFE8
:100794002046FFF773FF8AE72046FFF76DFF2046E8
:1007A400FFF76CFF9BE72046FFF766FF2046FFF745
:1007B40065FFACE72046FFF75FFF2046FFF75EFFCB
:1007C400BDE76FF001021A61204601F0C1FAC1E7EA
:1007D4006FF080021A61204600F0B3F9C3E76FF0AE
:1007E40040021A612046FFF74AFFC5E76FF0200276
:1007F4001A61204600F0A4F9C7E700000368254AFF
:1008040090420ED0B0F1804F0BD0A2F57C429042C2
:1008140007D002F58062904203D002F580629042D4
:1008240003D123F070034A6813431A4A90421AD042
:10083400B0F1804F17D0A2F57C42904213D002F55C
:10084400806290420FD002F5806290420BD002F594
:100854009A32904207D002F58062904203D002F5AA
:100864008062904203D123F44073CA68134323F097
:1008740080034A69134303608B68C3620B68836215
:10088400044B984202D00123436170470B69036310
:10089400F9E700BF0000014040B310B5044690F8EA
:1008A4003D30F3B1022384F83D30214651F8040B66
:1008B400FFF7A4FF012384F8463084F83E3084F81F
:1008C4003F3084F8403084F8413084F8423084F872
:1008D400433084F8443084F8453084F83D300020B7
:1008E40010BD80F83C3001F0E5F9DBE701207047EA
:1008F40030B4036A23F010030362036A4468826914
:1009040022F4E6420D6842EA052223F020038D68B2
:1009140043EA05130E4DA84209D00D4DA8420ED04E
:10092400446082614A688263036230BC704723F08A
:100934008003CD6843EA051323F04003EDE724F474
:1009440040644D6944EA85048D6944EA8504E7E717
:100954000000014038B590F83C30012B66D00446C5
:100964000D46012380F83C300C2A5AD8DFE802F007
:10097400075959591B595959305959594400006854
:10098400FFF7F6FD2268936943F008039361226838
:10099400936923F0040393612268936929690B43E3
:1009A400936100203EE00068FFF7A2FF226893698C
:1009B40043F4006393612268936923F48063936131
:1009C40022689369296943EA01239361002029E09D
:1009D4000068FFF7FBFD2268D36943F00803D36185
:1009E4002268D36923F00403D3612268D369296997
:1009F4000B43D361002015E00068FFF719FE22685D
:100A0400D36943F40063D3612268D36923F4806318
:100A1400D3612268D369296943EA0123D3610020A1
:100A240000E00120002384F83C3038BD0220FCE7BC
:100A340001F01F01012303FA01FC036A23EA0C03FA
:100A44000362036A02FA01F10B4303627047000078
:100A540010B504460846002932D194F83E30DBB282
:100A6400013B18BF0123002B63D1002841D102238D
:100A740084F83E30012201462068FFF7D9FF23683D
:100A84002E4A934245D023682C4A934246D0B3F170
:100A9400804F43D0A2F57C4293423FD002F580625E
:100AA40093423BD002F58062934237D002F59A32EA
:100AB400934233D01A6842F001021A60002037E0F2
:100AC400042908D008290DD094F84130DBB2013B49
:100AD40018BF0123C7E794F83F30DBB2013B18BFCE
:100AE4000123C0E794F84030DBB2013B18BF012377
:100AF400B9E7042805D0082807D0022384F8413038
:100B0400B8E7022384F83F30B4E7022384F8403086
:100B1400B0E75A6C42F400425A64B4E79A6802F0AF
:100B24000702062A07D01A6842F001021A60002060
:100B340010BD0120FCE70020FAE700BF00000140DF
:100B440070477047026802F10C0353E8003F23F436
:100B540090730C3242E800310029F3D1026802F1AB
:100B6400140353E8003F23F00103143242E8003138
:100B74000029F3D1036B012B05D0202380F83E30EC
:100B8400002303637047026802F10C0353E8003F3B
:100B940023F010030C3242E800310029F3D1ECE7D2
:100BA40090F83D30DBB2212B01D0022070478368DE
:100BB400B3F5805F17D0036A5A1C02621A7803687F
:100BC4005A60C38C9BB2013B9BB2C3844BB902688D
:100BD400D36823F08003D3600268D36843F04003F2
:100BE400D360002070470369002BE4D1036A1B889B
:100BF4000268C3F308035360036A02330362E0E745
:100C0400704708B50168CA6822F04002CA60202211
:100C140080F83D20FFF7F4FF002008BD704708B5B9
:100C2400806B0023C385C384FFF7F8FF08BD7047BA
:100C340090F83E30DBB2222B67D18368B3F5805F36
:100C44004DD0826AB3F5805F04D0002B54D1036980
:100C5400002B51D103685B681370836A013383628C
:100C6400C38D9BB2013B9BB2C385002B4FD100B512
:100C740083B00268D36823F02003D3600268D3688A
:100C840023F48073D3600268536923F00103536132
:100C9400202380F83E30036B012B33D10023036300
:100CA400026802F10C0353E8003F23F010030C32F6
:100CB40042E800310029F3D103681A6812F0100FDA
:100CC40006D0002201921A6801925B680193019B8D
:100CD400818DFFF7ACFF002003B05DF804FB0269CF
:100CE400002AAED1826A03685B68C3F308031380E9
:100CF400836A02338362B3E703685B6803F07F03AC
:100D04001370AAE700F024FFE5E7022070470020F3
:100D14007047000030B583B0044602681368D06899
:100D2400516913F00F0505D113F0200F02D010F014
:100D3400200F19D12DB111F0010119D110F4907FB8
:100D440016D1216B01297DD013F0800F03D010F050
:100D5400800F40F0158113F0400F03D010F0400FC6
:100D640040F0128103B030BD2046FFF761FFF9E780
:100D740013F0010F06D010F4807F03D0226C42F0F0
:100D84000102226413F0040F04D019B1226C42F062
:100D94000202226413F0020F04D019B1226C42F053
:100DA4000402226413F0080F07D010F0200F00D1C2
:100DB40019B1226C42F008022264226C002AD1D0BC
:100DC40013F0200F02D010F0200F29D123685B69A3
:100DD40003F04003226C12F0080F00D163B32046E5
:100DE400FFF7B0FE23685B6913F0400F20D0226840
:100DF40002F1140353E8003F23F04003143242E8A5
:100E040000310029F3D1A36B73B1614A1A65A06B59
:100E140000F035FD0028A5D0A06B036D9847A1E72D
:100E24002046FFF705FFD1E72046FFF7F7FE99E7D5
:100E34002046FFF7F3FE95E72046FFF7EFFE002379
:100E440023648FE713F0100F3FF47EAF10F0100F00
:100E54003FF47AAF0023019313680193536801931D
:100E6400019B536913F0400F50D0A26B13685B6869
:100E74009BB2002B3FF476AFA18D99427FF672AFFF
:100E8400E385D369B3F5807F37D0226802F10C0380
:100E940053E8003F23F480730C3242E80031002908
:100EA400F3D1226802F1140353E8003F23F0010355
:100EB400143242E800310029F3D1226802F114030C
:100EC40053E8003F23F04003143242E80031002984
:100ED400F3D1202384F83E3000232363226802F1F7
:100EE4000C0353E8003F23F010030C3242E80031B6
:100EF4000029F3D1A06B00F078FCA18DE38D9BB2A7
:100F0400C91A89B22046FFF792FE2BE7A18DE38D23
:100F14009BB2C91A89B2E38D9BB2002B3FF422AF76
:100F240000293FF41FAF226802F10C0353E8003F8D
:100F340023F490730C3242E800300028F3D1226885
:100F440002F1140353E8003F23F00103143242E892
:100F540000300028F3D1202384F83E30002323639B
:100F6400226802F10C0353E8003F23F010030C3213
:100F740042E800300028F3D12046FFF758FEF1E69E
:100F84002046FFF70DFEEDE62046FFF73AFEE9E6C0
:100F9400230C000890F83D3090F83E001843704749
:100FA40081628285C28500230364222280F83E2068
:100FB40080F83C30036923B10268D36843F480733A
:100FC400D3600268536943F0010353610268D36834
:100FD40043F02003D3600020704708B590F83E30FA
:100FE400DBB2202B0DD171B17AB190F83C30012BDA
:100FF4000DD0012380F83C3000230363FFF7D0FFBA
:1010040000E0022008BD0120FCE70120FAE70220ED
:10101400F8E70000002800F0E08170B582B00446D3
:10102400036813F0010F3BD09F4B9B6803F00C0344
:10103400042B2CD09C4B9B6803F00C03082B21D071
:101044006368B3F5803F4FD0B3F5A02F52D0964BD1
:101054001A6822F480321A601A6822F480221A6014
:101064006368002B50D000F0D7FC05468E4B1B68FC
:1010740013F4003F14D100F0CFFC401B6428F5D9D1
:101084000320B1E1884B5B6813F4800FD8D0864B02
:101094001B6813F4003F03D06368002B00F09F81AA
:1010A400236813F0020F54D07F4B9B6813F00C0F8E
:1010B4003ED07D4B9B6803F00C03082B33D0E368D0
:1010C400002B68D0794B01221A6000F0A5FC05467C
:1010D400754B1B6813F0020F54D100F09DFC401BAC
:1010E4000228F5D903207FE16F4A136843F4803363
:1010F4001360B5E76C4B1A6842F480221A601A68D0
:1011040042F480321A60ABE700F086FC0546664B79
:101114001B6813F4003FC3D000F07EFC401B64281E
:10112400F5D9032060E1604B5B6813F4800FC6D1EE
:101134005D4B1B6813F0020F03D0E368012B40F0F2
:101144005081594A136823F0F803216943EAC10323
:101154001360236813F0080F42D063696BB3534BD9
:101164000122C3F8802E00F057FC05464E4B5B6FFE
:1011740013F0020F34D100F04FFC401B0228F5D9C4
:10118400032031E1484A136823F0F803216943EA54
:10119400C1031360DDE7454B00221A6000F03CFCFC
:1011A4000546414B1B6813F0020FD2D000F034FC0B
:1011B400401B0228F5D9032016E13C4B0022C3F85A
:1011C400802E00F029FC0546374B5B6F13F0020FAD
:1011D40006D000F021FC401B0228F5D9032003E1CE
:1011E400236813F0040F77D02F4B1B6C13F0805F30
:1011F40033D1002301932C4B1A6C42F080521A64B1
:101204001B6C03F080530193019B0125284B1B6841
:1012140013F4807F23D0A368012B34D0052B38D05E
:10122400214B1A6F22F001021A671A6F22F004028E
:101234001A67A368002B3DD000F0EEFB06461A4B5C
:101244001B6F13F0020F46D100F0E6FB801B41F246
:1012540088339842F3D90320C6E00025D6E7144A20
:10126400136843F48073136000F0D6FB0646104BFA
:101274001B6813F4807FCED100F0CEFB801B0228C4
:10128400F5D90320B0E0084A136F43F00103136754
:10129400CFE7054B1A6F42F004021A671A6F42F047
:1012A40001021A67C5E700BF003802400000474248
:1012B4000070004000F0B0FB0646524B1B6F13F069
:1012C400020F08D000F0A8FB801B41F2883398423B
:1012D400F3D9032088E0EDB9A369002B00F08380E3
:1012E400484A926802F00C02082A51D0022B17D007
:1012F400454B00221A6600F08FFB0446414B1B68E5
:1013040013F0007F42D000F087FB001B0228F5D9C0
:10131400032069E03B4A136C23F080531364DBE73A
:10132400394B00221A6600F077FB0546354B1B68E3
:1013340013F0007F06D000F06FFB401B0228F5D9A4
:10134400032051E0E369226A1343626A43EA821389
:10135400A26A5208013A43EA0243E26A43EA026398
:10136400284A5360284B01221A6600F055FB0446B4
:10137400244B1B6813F0007F06D100F04DFB001BCB
:101384000228F5D903202FE000202DE000202BE0D7
:10139400012B2BD01B4B5B6803F48001E269914263
:1013A40026D103F03F02216A8A4223D1616A47F6BB
:1013B400C0721A40B2EB811F1ED103F44031A26AFD
:1013C4005208013AB1EB024F18D103F07063E26A9C
:1013D400B3EB026F14D1002006E001207047012016
:1013E40002E0012000E0002002B070BD0120FBE714
:1013F4000120F9E70120F7E70120F5E70120F3E7F1
:101404000120F1E7003802400000474208B5254BAF
:101414009B6803F00C03042B3FD0082B3FD1214BD6
:101424005A6802F03F025B6813F4800F12D01D4B20
:101434005968C1F388111C480023A1FB0001FEF781
:10144400C7FE184B5B68C3F3014301335B00B0FB79
:10145400F3F025E0134B5968C1F3881C4FEA4C1193
:10146400B1EB0C006EEB0E0E4FEA8E1343EA906361
:101474008101091A63EB0E03DB0043EA5173C900CF
:1014840011EB0C0C43F10003990200234FEA8C206A
:1014940041EA9C51FEF79CFED3E7034800E0034871
:1014A40008BD00BF0038024040787D010024F400EC
:1014B400002800F09B8070B50D4604464F4B1B6816
:1014C40003F007038B4208D2CBB24C4A1370136863
:1014D40003F007038B4240F08B80236813F0020F64
:1014E40017D013F0040F04D0454A936843F4E05333
:1014F4009360236813F0080F04D0414A936843F4BF
:10150400604393603E4A936823F0F003A1680B4361
:101514009360236813F0010F32D06368012B21D04C
:101524009A1E012A25D9364A126812F0020F61D098
:1015340033498A6822F0030213438B6000F06CFA8B
:1015440006462F4B9B6803F00C036268B3EB820FD3
:1015540016D000F061FA801B41F288339842F0D92A
:10156400032042E0264A126812F4003FE0D1012031
:101574003BE0234A126812F0007FD9D1012034E005
:101584001E4B1B6803F00703AB4207D9EAB21B4B9F
:101594001A701B6803F00703AB422DD1236813F0C4
:1015A400040F06D0164A936823F4E053E1680B4312
:1015B4009360236813F0080F07D0114A936823F44B
:1015C4006043216943EAC1039360FFF71FFF0C4B9B
:1015D4009B68C3F303130B4AD35CD8400A4B1860CF
:1015E4000A4B186800F0CCF9002070BD0120704748
:1015F4000120FAE70120F8E70120F6E7003C024069
:1016040000380240BC1E000808000020040000202E
:1016140000230F2B00F2D28070B582B060E08568A1
:101624005E000324B44025EA0405CC68B4402C438E
:101634008460456825EA02054C68C4F300129A40A8
:101644002A4342605AE0DC08083450F8246003F06E
:10165400070295000F22AA4026EA020E0A69AA4050
:1016640042EA0E0240F824205CE0042200E000225A
:1016740002FA0EF22A430234514D45F82420514A0D
:1016840094686FEA0C0224EA0C054E6816F4801F75
:1016940001D04CEA04054B4CA560E46802EA040559
:1016A4004E6816F4001F01D04CEA0405454CE56071
:1016B400646802EA04054E6816F4003F01D04CEA5F
:1016C4000405404C6560246822404D6815F4803F51
:1016D40001D04CEA04023B4C226001330F2B6BD83F
:1016E40001229A400C6804EA020C32EA0404F4D1A0
:1016F4004C6804F00304013C012C90D94A6802F0C0
:101704000302032A09D0C4685D000322AA4024EA24
:1017140002048A68AA402243C2604A6802F00302B3
:10172400022A90D004684FEA430E032202FA0EF212
:1017340024EA02044A6802F0030202FA0EF2224387
:1017440002604A6812F4403FC7D0002201921E4A48
:10175400546C44F480445464526C02F48042019208
:10176400019A9C08A51C164A52F8255003F003025E
:101774004FEA820E0F2202FA0EF225EA0205134AFC
:1017840090423FF474AF02F5806290420ED002F5AD
:10179400806290420CD002F5806290420AD002F539
:1017A400806290423FF461AF072261E701225FE764
:1017B40002225DE703225BE702B070BD704700BF01
:1017C40000380140003C0140003802400000024063
:1017D4000369194201D001207047002070470AB103
:1017E4008161704709048161704770B50446866D54
:1017F40000F012F994F83530DBB2022B06D08023C6
:101804006365002384F83430012070BD05462268E6
:10181400136823F0160313602268536923F08003CE
:101824005361236CE3B12268136823F00803136047
:101834002268136823F00103136023681B6813F004
:10184400010F11D000F0E8F8431B052BF5D9202334
:101854006365032084F83500002384F83430D4E72A
:10186400A36C002BDFD1E3E7E26D3F239340B36029
:10187400012384F83530002084F83400C5E790F85B
:101884003530DBB2022B03D080234365012070473F
:10189400052380F835300268136823F001031360D0
:1018A40000207047074AD36823F4E0631B041B0C31
:1018B400000200F4E060034343F0BF6343F40033E9
:1018C400D360704700ED00E000B5194BDB68C3F34B
:1018D4000223C3F1070CBCF1040F28BF4FF0040C22
:1018E40003F1040EBEF1060F18D9033B4FF0FF3E7F
:1018F4000EFA0CFC21EA0C0199400EFA03F322EAD9
:101904000303194300280BDB0901C9B200F160404D
:1019140000F5614080F800135DF804FB0023E5E75F
:1019240000F00F000901C9B2024B1954F4E700BFDB
:1019340000ED00E014ED00E00138B0F1807F0BD23F
:101944004FF0E0235861054AF02182F8231000206B
:10195400986107221A6170470120704700ED00E08A
:10196400042806D04FF0E022136923F00403136126
:1019740070474FF0E022136943F00403136170478A
:1019840010B504460E4B18784FF47A73B3FBF0F39A
:101994000C4A1068B0FBF3F0FFF7CEFF68B90F2CC8
:1019A40001D901200AE0002221464FF0FF30FFF761
:1019B4008BFF054B1C60002000E0012010BD00BF20
:1019C40000000020080000200400002008B50B4B94
:1019D4001A6842F400721A601A6842F480621A604B
:1019E4001A6842F480721A600320FFF75BFF0F202D
:1019F400FFF7C6FFFEF7A0FD002008BD003C024033
:101A0400034A1168034B1B780B441360704700BFF3
:101A14002C00002000000020014B1868704700BF14
:101A24002C000020014B1868000C7047002004E0D3
:101A3400034AD2F8883043F47003C2F88830704700
:101A440000ED00E010B504460420FFF789FF014BC8
:101A54001C6010BD3000002010B44FF0E022546927
:101A64000C4B1B6800FB03FC9369002104E0E01AA3
:101A740002441144614509D21A464FF0E0239B69A0
:101A84009A42FAD0F3D9D21A1144F3E75DF8044B21
:101A9400704700BF3000002038B50546002404E03C
:101AA4004FF47A70FFF7D8FF0134A542F8D838BD57
:101AB40070B594B000260196224C256C45F08055F3
:101AC4002564246C04F080540194019C02961E4CFD
:101AD400256845F440452560246804F44044029494
:101AE400029C012408944FF48034099402240E9437
:101AF4004FF480040F94109111901292139308A83C
:101B0400FFF788FA00B1FEE70F230393022304933F
:101B1400002305934FF4805206920793052103A8EE
:101B2400FFF7C6FC00B1FEE7FFF77CFF41F20103BB
:101B3400984201D014B070BD044A136843F4807312
:101B44001360F7E70038024000700040003C024098
:101B54000268194B9A4200D07047184A1388B2F9A8
:101B64000020002AF8DB13F4804F0ED0144A1278B8
:101B74000A2A03D0114B00221A8070476FEA4343AC
:101B84006FEA53430D4A138070470D4A12780D2AA9
:101B94000DD0C3F30D010B48425401339BB2074AE5
:101BA4001380C72BD8D9134600221A80D4E743F4F4
:101BB4008043024A13807047001001404001002016
:101BC400440100207800002008B50848FFF7A2F877
:101BD4000648FFF7DFF92028FAD101220449034817
:101BE400FFF7FBF90028F8D108BD00BF340000203E
:101BF4004401002070B586B0002300930E4B1A6B8D
:101C040042F004021A631B6B03F004030093009B6D
:101C1400012402940394022304934FF40056019682
:101C2400064D01A92846FFF7F3FC22463146284613
:101C3400FFF7D5FD06B070BD003802400008024031
:101C440010B5074C4FF400512046FFF7C1FDB0FA20
:101C540080F252094FF400512046FFF7C0FD10BD39
:101C640000080240F8B506460F4C104B2360616033
:101C74000027A760E06027612046FEF70DFE0C4DAB
:101C840060232B606E600223AB603A4629462046EF
:101C9400FEF760FE082229462046FEF75BFE082177
:101CA4002046FEF7D5FEF8BDAC010020000C004034
:101CB4009001002000B58BB0002201921B4B196CDF
:101CC40041F008011964196C01F0080101910199AE
:101CD4000292596C41F480215964596C01F48021B9
:101CE400029102990392196B41F001011963196B76
:101CF40001F001010391039904921A6B42F002026C
:101D04001A631B6B03F002030493049B05230593DE
:101D1400022306930122079203220892099305A93C
:101D24000348FFF775FC0BB05DF804FB0038024074
:101D340000000240014BD863704700BF000C004014
:101D440008B50248FEF79CFC08BD00BF480100200E
:101D540008B5034B834200D008BDFFF771FFFBE7D2
:101D64004801002000B587B0002100910B4B1A6B8D
:101D740042F001021A631B6B03F001030093009B02
:101D840001230193029103930323049301A90448BB
:101D9400FFF73EFC07B05DF804FB00BF00380240CB
:101DA4000000024010B5012811D0144B1B782BB150
:101DB40001211348FFF70CFD044660B101211048CE
:101DC400FFF706FD012814D00024204610BD0B4B5C
:101DD40001221A70E9E70A20FFF75EFE074B002292
:101DE4001A7001210648FFF7F3FC0028EDD1012405
:101DF400EBE7024B01221A700024E6E70C000020F6
:101E040000000240DFF834D00D480E490E4A00238A
:101E140002E0D458C4500433C4188C42F9D30B4A9A
:101E24000B4C002301E013600432A242FBD3FFF702
:101E3400FFFD00F011F8FEF74DFB70470000012094
:101E44000000002010000020DC1E0008100000200C
:101E5400F4010020FEE7000070B50D4D0D4C641B2D
:101E6400A4100026A64209D10B4D0C4C00F018F822
:101E7400641BA4100026A64205D170BD55F8043B8E
:101E840098470136EEE755F8043B98470136F2E7E8
:101E9400D41E0008D41E0008D41E0008D81E000852
:101EA400F8B500BFF8BC08BC9E467047F8B500BF43
:081EB400F8BC08BC9E46704713
:101EBC0000000000000000000102030406070809EE
:081ECC0038E3FF7F0100000074
:041ED400B901000848
:041ED8009501000868
:101EDC0001000000100000000024F40001000000CC
:0400000508001E09C8
:00000001FF
